:020000040800F2
:10000000F8B302206D020008E55C0008EF2200084A
:10001000E35C000869060008C569000800000000EC
:1000200000000000000000000000000067650008FC
:100030006B06000800000000075D0008ED65000881
:10004000870200088702000887020008870200086C
:10005000870200088702000887020008870200085C
:10006000870200088702000887020008870200084C
:10007000870200088702000887020008870200083C
:10008000870200088702000887020008870200082C
:10009000870200088702000887020008870200081C
:1000A000870200088702000887020008870200080C
:1000B00087020008870200088702000887020008FC
:1000C00087020008870200088702000887020008EC
:1000D00087020008596900088702000887020008A3
:1000E00087020008870200088702000887020008CC
:1000F00087020008870200088702000887020008BC
:1001000087020008870200088702000887020008AB
:10011000870200088702000887020008870200089B
:10012000870200088702000887020008870200088B
:10013000870200088702000887020008870200087B
:10014000870200088702000887020008870200086B
:10015000870200088702000887020008870200085B
:10016000870200088702000887020008870200084B
:1001700087020008870200088702000800000000CC
:10018000870200088702000887020008870200082B
:10019000870200088702000887020008870200081B
:1001A00087020008870200088702000800F002F8B2
:1001B00000F044F80AA090E8000C82448344AAF1BD
:1001C0000107DA4501D100F039F8AFF2090EBAE8BB
:1001D0000F0013F0010F18BFFB1A43F0010318477B
:1001E00020B8000040B80000103A24BF78C878C199
:1001F000FAD8520724BF30C830C144BF04680C602D
:10020000704700000023002400250026103A28BF74
:1002100078C1FBD8520728BF30C148BF0B60704778
:10022000642900F08580782900F0BE8000207047A6
:100230001FB507F011F81FBD10B510BD00F0E2F9B1
:100240001146FFF7F5FF06F0FBFB00F000FA03B4E0
:10025000FFF7F2FF03BC06F0B6FB000030BF72B63A
:10026000704762B6704780F3088870470948804736
:1002700009480047FEE7FEE7FEE7FEE7FEE7FEE788
:10028000FEE7FEE7FEE7FEE704480549054A064BA0
:1002900070470000F1650008AD010008F8AD0220CC
:1002A000F8B30220F8AF0220F8AF02207047000038
:1002B0000FB4044910B503AA029800F075F910BCF8
:1002C0005DF814FB200000202DE9F0410E460446A5
:1002D000002020622046E168884730B3252805D0F9
:1002E000D4E901219047206A401CF2E7E1682046EA
:1002F00000278847050018D0A5F14100192802D829
:1003000020354FF400673246294620462760FFF724
:1003100087FF40B1012804D0F61D26F007060836F5
:10032000D8E7361DD6E72846DAE7206ABDE8F0812F
:100330002DE9F0410646002410687529314616A5BE
:1003400010D0AFF30080002802DA404213A507E086
:1003500031688A0701D512A502E0490704D511A525
:10036000012401E0AFF3008000210A2206F12407F6
:1003700009E0B0FBF2FCB0FBF2F302FB1C003030F2
:1003800078541846491C0028F3D123462A463046A3
:10039000BDE8F04100F0AFB8000000002D00000003
:1003A0002B0000002000000070B504460D462146D9
:1003B0001068AFF300802188090502D50F4A7A44FE
:1003C00002E00E4A7A440E32002104F1240305E0D3
:1003D00000F00F060009965D5E54491C0028F7D115
:1003E00020780023000704D5702D02D009B1022324
:1003F00011322046BDE8704000F07DB816B600000E
:10040000032A40F2308010F0030C00F0158011F840
:10041000013BBCF1020F624498BF11F801CB00F818
:10042000013B38BF11F8013BA2F1040298BF00F86C
:1004300001CB38BF00F8013B11F0030300F0258029
:10044000083AC0F0088051F8043B083A51F804CB50
:10045000A0E80810F5E7121D5CBF51F8043B40F816
:10046000043BAFF30080D20724BF11F8013B11F821
:1004700001CB48BF11F8012B24BF00F8013B00F865
:1004800001CB48BF00F8012B704710B5203AC0F0EF
:100490000B80B1E81850203AA0E81850B1E8185085
:1004A000A0E81850BFF4F5AF5FEA027C24BFB1E8C2
:1004B0001850A0E8185044BF18C918C0BDE8104033
:1004C0005FEA827C24BF51F8043B40F8043B08BF3C
:1004D0007047D20728BF31F8023B48BF11F8012B03
:1004E00028BF20F8023B48BF00F8012B7047704737
:1004F0007047704770472DE9F0470D469946924680
:10050000044600F124080168880604D5E06921F05A
:100510001001216000E00120A84201DD471B00E03E
:100520000027A1697A1902EB0900081AA061207856
:10053000C00602D42046AFF30080002608E0D4E9CC
:1005400001211AF806009047206A401C761C2062A0
:100550004E45F4DB2078C0060AD52046AFF3008074
:1005600006E0D4E9012130209047206A401C206237
:10057000381EA7F10107F4DC07E0D4E9012118F8DF
:1005800005009047206A401C2062281EA5F1010545
:10059000F3DC2046AFF300802078000602D502206D
:1005A000BDE8F0870120FBE7074B70B50D467B44A3
:1005B00000F011F80446284600F020F810B14FF082
:1005C000FF3070BD204670BD7B64000001694A1C8D
:1005D00002610878704700B58FB0CDE90131002184
:1005E000059105497944CDE9031011466846FFF7A6
:1005F0006BFE0FB000BD0000E5FFFFFF007B00F0C9
:1006000080007047754600F02BF8AE46050069463D
:10061000534620F00700854618B020B5FFF734FE9A
:10062000BDE820404FF000064FF000074FF00008F3
:100630004FF0000B21F00701AC46ACE8C009ACE874
:10064000C009ACE8C009ACE8C0098D46704710B5D8
:100650000446AFF300802046BDE81040FFF7F7BD29
:100660000048704798AD0220FEE7704770B5B3F5BB
:10067000804F05D06FF0704140F82210002070BD0F
:1006800050F82230084C2340D1E9004544EA0514D3
:100690008D688E892D0245EA064589692C430C43F5
:1006A0001C4340F82240E9E70000F0CFF0B50C68A9
:1006B00050F82450194A1540D1E90123D1E90367C4
:1006C0001A433E4332434E6932438E693243CE6908
:1006D00032430E6A32434E6A32438E6A3243CE6AE6
:1006E0003243CE6B32430E6B32434E6B32432A435E
:1006F000082B01D142F0400240F824204A6BB2F5A9
:10070000801F08D10A6832B14FF480720A6104492F
:100710000268114301600020F0BD00008000E0FF8E
:1007200000011000F0B500EB820253688E8903F0DF
:100730004044D1E9003543EA05138D682D0245EAAE
:1007400006452B430E8A0D4D05EB065633430E7DB1
:100750006F0107EB066633438E69334323435360CF
:100760000268D20207D54268098A22F4700205EBBA
:100770000151114341600020F0BD00000000F0FF76
:1007800030B5D1E901231A43D1E9033423431A4395
:100790004B690D681A438B691A43D1E90734012D5F
:1007A000496A05686FF30E0505D01A4322430A43D0
:1007B0002A43026008E0234329430B434168036056
:1007C0006FF30E010A434260002030BD426942EAE5
:1007D0004101416100207047F8B514460546D1E952
:1007E000000210438A686FF01F03C96803EB4212CE
:1007F00042EA412108430090286100F053F906467F
:1008000009E0601C07D024B100F04CF9801BA04225
:1008100001D90320F8BDA8698006F2D40020F8BDF4
:10082000F0B56FF00F05D1E9003405EB04145B1E41
:100830002E0123438C682F0306EB04244FEA054C5A
:1008400023430D8A8E8ACC68097E4FF07F4E07EBDA
:1008500005450CEB06560EEB0161012A0CD08268AF
:100860003F1107EB043423432B43334302F0704220
:100870000B43134383600FE0C2682B430B4302F02A
:1008800070428168134301F070422103A1F5805149
:1008900031431143C36081600020F0BD31B500F0E9
:1008A00001F9044600F0FEF80099001B8842F9D3D4
:1008B00038BD00002DE9F84FDFF8A091002209F1C2
:1008C000040A0AF1040B4FF00F080BF1040E012685
:1008D0000B6896403340B34271D14C68022C01D072
:1008E000122C11D1D40800EB84073D6A5407E40EA2
:1008F00008FA04FC25EA0C05D1F810C00CFA04FC37
:100900004CEA050CC7F820C007685400032591F88D
:1009100004C0A5400CF0030CAF430CFA04FC4CEAF5
:10092000070CC0F800C04F68012F05D0022F03D07C
:10093000112F01D0122F11D18768D1F80CC0AF430D
:100940000CFA04FC4CEA070CC0F808C04768B7432F
:100950000E79C6F3001696403E434660C668AE4325
:100960008D68A5403543C5604C68E4006FD53C4CAC
:10097000256845F480452560246822F0030504F4C9
:1009800080440094374C2E19D6F808789407250F28
:1009900008FA05F4A743344CA04201D100242EE00C
:1009A000324CA04201D1012429E0314CA04201D1B6
:1009B000022424E02F4CA04202D103241FE046E091
:1009C0002D4CA04201D1042419E02C4CA04201D1AD
:1009D000052414E02A4CA04201D106240FE0294C42
:1009E000A04201D107240AE0274CA04201D10824EB
:1009F00005E0264CA04201D1092400E00A24AC40C5
:100A00003C43C6F80848D9F800404D464E689C4320
:100A1000F60300D51C432C60DAF8004055464E68BA
:100A20009C43B60300D51C432C60DBF800405D46B8
:100A30004E689C43F60200D51C432C60DEF8004053
:100A400075464E689C43B60200D51C432C60521C70
:100A5000102AFFF43CAFBDE8F88F0000003C0140D5
:100A600044380240003001400000024000040240CF
:100A700000080240000C0240001002400014024036
:100A800000180240001C02400020024000240240E6
:100A90000069084000D0012070470AB181617047A9
:100AA0000904FBE7014800687047000014000020BB
:100AB00002480168491C01607047000014000020D2
:100AC0000B4810B5016841F400710160016841F400
:100AD00080610160016841F480710160052000F0CF
:100AE000BFF90F2000F006F800F08AF9002010BDD1
:100AF000003C024010B5044600F060FC4FF47A71EF
:100B0000B0FBF1F001F084FA00222146501E00F003
:100B100087F9002010BD2DE9F041044690F8A000AF
:100B200015460F4601281DD0012684F8A06002203A
:100B300084F8A10005EB850000EBC50004EB800004
:100B400034223830FFF7A1FC2A463946204605F00A
:100B500017F82068466284F8A160002084F8A0009D
:100B6000BDE8F0810220FBE770B5040004D094F8E2
:100B7000A100002510B106E0012070BD84F8A0504E
:100B8000204600F06FF8022084F8A10020688169F7
:100B900021F070418161D4E901100143D4E90302DD
:100BA0001043014320688269114381612068826893
:100BB0002B490A408260A08A020420688368A669E3
:100BC0003343134383602068C2680A40C260A08B2D
:100BD00002042068C368266A33431343C360206855
:100BE00002690A400261A08C020420680369A66AB7
:100BF000334313430361206842690A404261A08D78
:100C0000010420684269236B1A430A43426194F845
:100C10003500020294F8360001042068C36A03F02C
:100C20007F43C3622068C36A94F83460114333433E
:100C30000B43C3622068416B41F0040141632068AB
:100C4000416B41F0020141632068816941F001017B
:100C50008161C4F8A450012084F8A100002070BD77
:100C600000F800F030B5364887B00025016841F043
:100C700080610160006800F08060059030481438A1
:100C8000016841F400010160016801F4000105916F
:100C9000016841F002010160016801F00201059163
:100CA000016841F020010160016801F02001059117
:100CB000016841F040010160016801F040010591C7
:100CC000016841F080010160016801F08001059137
:100CD000016841F4807101600068032400F48070B1
:100CE0000590202000900120CDE902040190694682
:100CF0001448FFF7DFFD4FF4806000900220CDE93B
:100D000001050E20CDE9034069460F48FFF7D2FDEB
:100D10004FF40C60009069460C48FFF7CBFD4FF490
:100D20007E40009069460A48FFF7C4FD40F2F76034
:100D3000009069460748FFF7BDFD07B030BD0000D1
:100D400044380240000402400014024000180240EF
:100D5000001C02400020024070B5044690F8A0003C
:100D60000E46012820D0012584F8A050022084F8E6
:100D7000A10003EB830000EBC30004EB800141F80A
:100D8000386F886A3044C1E90102C86A1044C860FB
:100D90001A46204604F0F4FE2068456284F8A1500B
:100DA000002084F8A00070BD022070BD2DE9F04144
:100DB000044690F8A0000F4601281FD0012584F8B2
:100DC000A050022084F8A10003EB830000EBC300D5
:100DD00004EB80010026E1E90E672046C1E90262CA
:100DE000C1E90A721A4604F0CBFE2068456284F815
:100DF000A15084F8A0600020BDE8F0810220FBE74C
:100E000008B50020009008BD00F01F0201219140AC
:100E10004009800000F1E020C0F800117047000098
:100E2000F0B40E4B1B68C3F30223C3F10704042C78
:100E300000D904241D1D072D01D2002300E0DB1E74
:100E4000012606FA04F56D1E0D409D409E40761E5B
:100E5000164045EA0601F0BC04F045BF0CED00E089
:100E6000064A00F0070110684FF6FF03184040EAF9
:100E70000120034908431060704700000CED00E0BA
:100E80000000FA052DE9F8431D48016841F0805142
:100E900001600068012700F080500090380490FA4B
:100EA000A0F0DFF86080B0FA80F048F82070FFF71B
:100EB000F9FD04464FF47A75134E04E0FFF7F2FD96
:100EC000001BA84213D87068C003F7D54FF4003058
:100ED00090FAA0F0B0FA80F048F82070FFF7E2FD39
:100EE000044607E0FFF7DEFD001BA84202D90320FD
:100EF000BDE8F88370688003F4D50020F8E70000AF
:100F00004038024000000E42007000402DE9F84FCA
:100F100004460068DFF878829E4DC10747F6C07A24
:100F20004FF0E0464FF0010B4FF0000901D1800770
:100F30004BD59949C1F86890FFF7B4FD074604E026
:100F4000FFF7B0FDC01B64287ED828680001F7D4E5
:100F500020789249C0070DD09AFAAAF26068B2FAD6
:100F600082F2904096FAA6F3A268B3FA83F39A400D
:100F7000104308602078800718D5086896FAA6F212
:100F800000F0E040B2FA82F2D0406268237B920126
:100F900042EA036242EA00700860D8F80010E26991
:100FA00021F01F01521E1143C8F800107A49C1F800
:100FB00068B0FFF777FD074604E0FFF773FDC01B3D
:100FC000642841D828680001F7D52068410701D47A
:100FD000000776D57049C1F87090FFF763FD0746AA
:100FE00004E0FFF75FFDC01B64282DD82868C043CC
:100FF0008000F6D520786A4F40074FF0706C29D5F5
:10100000386896FAA6F100F0E040B1FA81F1C840E4
:101010009AFAAAF22169B2FA82F291409CFAACF3F0
:101020006269B3FA83F39A40114396FAA6F2B2FAD0
:1010300082F2904001433960D8F800106FF0FF034E
:1010400021F4F851226A00E079E003EB0222114317
:10105000C8F800102078000723D538689CFAACF156
:1010600000F07060B1FA81F1C8409AFAAAF22169E1
:10107000B2FA82F291409CFAACF2B2FA82F290405B
:10108000014396FAA6F2A069B2FA82F290400143B7
:101090003960D8F80010626A21F440311143C8F871
:1010A00000103D49C1F870B0FFF7FCFC064604E0B3
:1010B000FFF7F8FC801B642841D82868C0438000F3
:1010C000F6D42078800651D532484F46403001682A
:1010D00041F0805101600068324E00F08050009075
:1010E000306840F480703060FFF7DCFC054604E0B7
:1010F000FFF7D8FC401B642821D83068C005F7D51D
:10110000264E143E3068218D00F4407001F4407189
:1011100088422BD03068244920F44070C1F800B0D8
:101120000F603060800710D5FFF7BCFC054641F228
:10113000883707E0FFF7B6FC401BB84202D903200E
:10114000BDE8F88F30688007F4D5A06A1149C0F374
:1011500001220831032A13D0086820F4F81008602F
:101160003068218DC1F30B01084330602078C00640
:1011700004D50E4994F82C00C1F8E0010020DFE707
:101180000A680B4B22F4F812184002430A60E7E7A2
:101190008C38024000380240000047428438024048
:1011A0008838024000700040400E4742001047421D
:1011B000FFFCFF0F2DE9F05FDFF8F8A104460F46B2
:1011C000DAF80000DFF8F08100F00F02C8B27A49C7
:1011D000814641F2883608F10808BA4261D20246D7
:1011E0008AF80020DAF8000000F00F00B8427DD144
:1011F0002078800707D5D8F80020A36822F0F002F5
:101200001A43C8F800202078C0072DD06068012854
:101210001AD002281BD0032819D009688907002991
:1012200064DAD8F80010474621F003010143C8F8FA
:101230000010FFF737FC0546606801280FD0022830
:1012400018D003281CD027E009688903E7E709685C
:101250008901E4E7FFF726FC401BB04258D8386804
:10126000C0F381000128F5D188E0FFF71BFC401B8B
:10127000B0424DD83868C0F381000228F5D17DE036
:101280003868FFF70FFC401BB042F9D940E0FFF788
:1012900009FC401BB0423BD8386810F00C0FF6D167
:1012A0006CE02078800707D5D8F80020A36822F0EA
:1012B000F0021A43C8F800202078C0074CD06068BC
:1012C000012828D0022829D0032827D009688907B7
:1012D000002949DAD8F8002022F003020243C8F8B6
:1012E0000020FFF7DFFB0546606800E03CE00128D6
:1012F0001DD0022829D0032838D0B346464630688E
:1013000010F00C0F28D0FFF7CDFB411B5945F6D943
:101310000320BDE8F09F09688903D9E709688901BE
:10132000D6E7FFF7BFFB411B594502D9F0E7B346AB
:1013300046463068C0F381000128F2D10CE0FFF787
:10134000B1FB411B594502D9E2E7B3464646306836
:10135000C0F381000228F2D18AF80090DAF8000088
:1013600000F00F00B84209D00120D2E744462068BF
:10137000FFF798FB401BB042F9D9C9E72078400736
:1013800007D5D8F80010E26821F4E0511143C8F8FD
:1013900000102078000708D5D8F80010226921F441
:1013A000604141EAC201C8F800100F20FFF7A2FB1C
:1013B0000020AEE7003C02400038024010B500F0CB
:1013C00043F808490968F02292FAA2F201F0F0010C
:1013D000B2FA82F2D140044A515CC8400349086025
:1013E00010BD0000083802406272000800000020B2
:1013F00010B5FFF7E3FF074909684FF4E05292FA8E
:10140000A2F201F4E051B2FA82F2D140024A515CF8
:10141000C84010BD083802406272000810B5FFF7DE
:10142000CDFF074909684FF4604292FAA2F201F435
:101430006041B2FA82F2D140024A515CC84010BD0C
:10144000083802406272000830B51948006810F090
:101450000C01184812D0184C04290ED008290DD1BF
:10146000134A121F1168136801F03F015D0247F62D
:10147000C07304D5B4FBF1F003E0204630BDB0FBEF
:10148000F1F01168194093FAA3F3B3FA83F3D9404A
:10149000484311684FF4403292FAA2F201F440310D
:1014A000B2FA82F2D140491C4900B0FBF1F030BDE4
:1014B000083802400024F40040787D012DE9F84FFF
:1014C00004460078DFF8FCA2BF4DC0074FF00006CD
:1014D00048D0DAF800105046C1F38101012908D044
:1014E0000068C0F3810002280AD1281D006840026C
:1014F00006D52868800335D56068002873D031E0B0
:10150000DFF8C49209F1020989F80060FFF7CAFA0E
:10151000074641F2883804E0FFF7C4FAC11B414591
:101520007AD828688003F7D4207989F800006068A9
:1015300060B1FFF7B7FA074604E0FFF7B3FAC11B43
:101540004145EDD828688003F7D50BE0FFF7AAFAEC
:10155000074604E0FFF7A6FAC11B4145E0D828681A
:101560008003F7D42078DFF86492800744D5DAF856
:101570000010504611F00C0F4FF0F80809D0006829
:10158000C0F3810002280BD18E48001F0068400282
:1015900006D42868800714D5E068012823D110E01C
:1015A000E068D0B10120C9F80000FFF77BFA0746D8
:1015B00004E0FFF777FAC01B6428B1D828688007D9
:1015C000F7D5286898FAA8F22169B2FA82F220F0D9
:1015D000F8009140084328600EE0C9F80060FFF76A
:1015E00061FA074605E0EAE0FFF75CFAC01B6428F1
:1015F00012D828688007F7D42078000725D5DFF8AF
:10160000C4817348616908F16C0881B101210160EE
:10161000FFF748FA074605E07EE0FFF743FAC01BF4
:10162000642879D8D8F800008007F6D50DE0066068
:10163000FFF738FA074604E0FFF734FAC01B6428C6
:101640006AD8D8F800008007F6D42078400753D530
:101650005C483830016841F0805101600068DFF873
:10166000748100F080500090D8F8001041F480712F
:10167000C8F80010FFF716FA074604E0FFF712FA61
:10168000C01B642848D8D8F80000C005F6D5DFF89C
:1016900034B10BF1680B8BF80060FFF703FA0746D3
:1016A00041F2883804E0FFF7FDF9C11B41457ED8BF
:1016B000DBF800008007F6D4207A8BF80000A068E1
:1016C00068B1FFF7EFF9074604E0FFF7EBF9C11B3C
:1016D00041456CD8DBF800008007F6D50CE0FFF739
:1016E000E1F9074604E0FFF7DDF9C11B41455ED88B
:1016F000DBF800008007F6D4A069E8B3DAF8001040
:10170000C1F3810102295AD0022806D0C9F86060CD
:10171000FFF7C8F904464DE049E04F46C9F860605C
:10172000FFF7C0F9064604E0FFF7BCF9801B642808
:101730003DD828688001F7D4D4E90701084347F66B
:10174000C07191FAA1F1626AB1FA81F18A40A16A8D
:101750004FF0FF3303EB51014FF4403393FAA3F3FF
:10176000B3FA83F399400A4310434FF0706292FA40
:10177000A2F2B2FA82F200E01FE0E16A914008436F
:101780001049091F086001203866FFF78BF90446ED
:1017900004E0FFF787F9001B642808D82868800157
:1017A000F7D50AE0FFF77EF9001B642802D9032071
:1017B000BDE8F88F28688001F4D40020F8E7012004
:1017C000F6E70000083802400038024000004742B7
:1017D000800E47420070004070B50D46040003D0F3
:1017E00094F82C0010B107E0012070BD002084F8AF
:1017F0002D00204600F012F8022084F82C00211D54
:101800002068FEF7BDFFD4E900022946FFF708F87B
:10181000012084F82C00002070BD0000304800B585
:10182000016887B041F001010160006800F001002B
:1018300005902B480838016841F0040101600168F7
:1018400001F004010591016841F00801016001689F
:1018500001F008010591016841F010010160016883
:1018600001F010010591016841F02001016001685B
:1018700001F020010591016841F04001016000681C
:10188000694600F0400005900D2000900220019074
:1018900001200290032003900C2004901148FFF7D0
:1018A00009F84CF20370009069460F48FFF702F800
:1018B0004FF68370009069460C48FEF7FBFF4FF629
:1018C0003F00009069460A48FEF7F4FF48F23710DF
:1018D000009069460748FEF7EDFF07B000BD000025
:1018E0003838024000080240000C0240001002405C
:1018F000001402400018024010B5044690F82C0075
:10190000022809D0022084F82C002068FEF75EFF30
:10191000012084F82C00002010BD70B5044690F81A
:101920002C000D4602280CD0022084F82C002068E0
:10193000FEF752FF2868022804D0012084F82C000A
:10194000002070BD0520F9E72DE9F04790F8202030
:1019500081F85620828CA1F85420826A0023120E4E
:1019600094090C70C2F383044C7002F003028A7075
:10197000826A120CCA70028D120A0A7190F828202D
:101980004A71C26A4FF6FF7A120E0AEA0212CA8040
:10199000C26ACC88C2F3074244EA1214CC8002F037
:1019A0000F020A72828DC2F30722D4094C72C2F36D
:1019B00080148C72C2F34014CC72C2F300140C7306
:1019C00000264E73046A4FF00109002C7DD0012CD3
:1019D000FCD0022C7AD02923C2F380144C769206D4
:1019E000520E01F81A2F10F8302F0C7844EAD21456
:1019F00001F8014B02F07F0201F8012B50F8042F8F
:101A0000120ED4090C70C2F341144C70C2F382045C
:101A10008C709207120FCA7004C8CC78C2F30742C8
:101A200044EA9214CC70C2F340140C714E7102F06F
:101A300001028A7130F8042CC2F30722D409CC7158
:101A4000C2F380140C72C2F340144C72C2F300143F
:101A50008C72C2F38104CC7202F003020A7310F894
:101A6000042C52084A734C4681F80E9050F8082B0B
:101A7000120E0A7450F8082C120C0AEA02224A824A
:101A800030F8082C4D8AC2F3072215434D8210F816
:101A9000082C120641F8142F50F8042C0D68120E71
:101AA00045EA02420A6050F8042C0D68C2F307426E
:101AB00045EA02220A6030F8042C0D68C2F30722BE
:101AC000154320C110F8042C01E034E076E001F861
:101AD000012B0268120E01F8032B0268120C120689
:101AE0000A6002880D68C2F3072245EA02420A60D2
:101AF00002780D6845EA02220A6042680D6845EAEC
:101B0000126520C142680D78C2F3074245EA1215FA
:101B100001F8025B1207120D0A8082880D88C2F359
:101B20000722154321F8025B0079400808704C70C9
:101B30001846BDE8F0879207120D0A6190F82C2034
:101B40000C6944EA82020A61026B0C69120E44EAD3
:101B500092140C61C2F3C2040C7502F007024A75BC
:101B6000026BC2F3074254098C75C2F38204CC7530
:101B70009207520F0A76028E0C7EC2F3072244EAC5
:101B8000D2140C760C690F7EBF1C09FA07F5641C91
:101B9000A4FB05784FEAE57C06FB058504FB0C55A4
:101BA00091F808C009FA0CF4A7FB04C80C6505FB02
:101BB000048407FB0644C1E912C40DE790F82C2009
:101BC0009206920A0A61026B0C69120E44EA022222
:101BD0000A61026B0C69C2F3074214430C61028E66
:101BE0000C69C2F30722641C46F10005ED0445EAC6
:101BF0005435E404C1E912454FF400740C65EBE67A
:101C000070B586B000250E4604468DF80C50057759
:101C100000F046F876200095CDE901502B462A4683
:101C20002946206804F092F8204604F027FB8DF83E
:101C30000C009DF80C0038B9204604F0B1FA8DF87C
:101C40000C009DF80C0018B19DF80C0006B070BD9A
:101C500031462046FFF778FE8DF80C009DF80C0009
:101C6000A0B9B6F85400694600040090072001901E
:101C70004020CDE9020500010490206804F07FF8BF
:101C80000721204604F0FEF88DF80C0004F1100046
:101C900007C88DE8070094E80F0004F057F8D3E771
:101CA0001D4800B5016887B041F40061016000681B
:101CB00000F40060059018481438016841F4800170
:101CC0000160016801F480010591016841F004019F
:101CD0000160016801F004010591016841F008010B
:101CE00001600068694600F0080005904FF4F85064
:101CF00000900220019001200290032003900C200C
:101D000004900648FEF7D6FD04200090694604487A
:101D1000FEF7D0FD07B000BD443802400008024085
:101D2000000C02402DE9F04F8BB004460D46DDE972
:101D30001478216800201646C862216A022903D15E
:101D40000F02560A46EAC3561021CDE90071402120
:101D5000834608010291CDE903B06946206804F08A
:101D60000EF81021204604F08DF800286DD14FF0B8
:101D7000FF3A08FB07F0CDE905A007A990204FF036
:101D8000020981E8010A01200A9005A9206803F0F0
:101D9000BBFFB8F1010F01D9122000E01120CDE9FD
:101DA00000606946206803F0EAFFB8F1010F1AD914
:101DB0001221204604F066F8070046D140F22A3B83
:101DC0002068416B11EA0B0F28D1406B0004F7D556
:101DD0000026206803F0D0FF45F82600761C082E68
:101DE000F7D32035ECE71121204604F04BF807002B
:101DF0002BD140F22A6B2068416B11EA0B0F0DD1F9
:101E0000406B0004F7D50026206803F0B5FF45F8C5
:101E10002600761C082EF7D32035ECE7406BC00572
:101E20000CD5B8F1010F09D9206A18B1012801D0E9
:101E3000022803D1204600F033F807462168486B9A
:101E4000000705D50820886304200BB0BDE8F08F9B
:101E5000486B800703D54846C1F83890F5E7486BD2
:101E6000800603D5202088630620EEE7486B8005B6
:101E700004D54FF4007088630720E6E7564603E078
:101E800003F07AFF01C5761E2068416B890201D5F7
:101E9000002EF5D1216840F2FF5088633846D4E720
:101EA00010B586B0044600200C21CDE90001402188
:101EB000CDE90210080104906946206803F05FFF35
:101EC0000C21204603F0DEFF06B010BDFEB504462F
:101ED000006A00250E46032805D030B1012804D041
:101EE000022802D01FE02720FEBDB6F5805F05D096
:101EF000B6F5006F04D03EB1262514E0272512E088
:101F0000204604F0F6FA02E0204604F0B9FA050093
:101F100009D1211DD4E905070EC9CDE9006002975A
:101F2000206803F013FF2846FEBD70B515460E4627
:101F3000040003D094F8490010B107E0012070BDFF
:101F4000002084F84800204600F01AF804F1080147
:101F50002068FEF7ABFB3146A2682068FEF7E2FB83
:101F6000D4E901022946236BFEF780FBA1682068B3
:101F700050F8212042F0010240F82120002070BDDD
:101F80001A4800B5016887B041F00101016000689E
:101F900000F00100059015480838016841F008017B
:101FA0000160016801F008010591016841F010012C
:101FB00001600068694600F0100005904EF2B370B1
:101FC00000900220019001200290032003900C2039
:101FD00004900748FEF76EFC4FF68070009069464B
:101FE0000448FEF767FC07B000BD00003838024027
:101FF000000C0240001002404FF0E0210428086964
:1020000003D020F004000861704740F00400FAE7B4
:1020100010B5401EB0F1807F01D3012010BD4FF0FC
:10202000E02460610F21601703F05DFE0020A061D5
:1020300007202061002010BD704738B501680446B4
:102040000868CA68C0F3000002F4807238B132B187
:10205000086848680090E06B40F00100E0630868A1
:102060004A69C0F3400002F0010238B132B1086899
:1020700048680090E06B40F00400E06308684A693B
:10208000C0F3800002F0010238B132B1086848683C
:102090000090E06B40F00200E06308684A69C0F31A
:1020A000C00002F0010238B132B1086848680090FF
:1020B000E06B40F00800E0630868C968C0F34010B6
:1020C00001F0200118B111B1204604F0BBFA2068DC
:1020D0000168C068C1F3C01100F0800019B110B1EF
:1020E000204604F0BDFB21680868CA68C0F3801070
:1020F00002F04002012568B162B1CA68204622F0B0
:102100004002CA6094F8391032290CD080F8395056
:1021100000F0ECF8E06B002804D084F83950204639
:10212000FFF78AFF38BD222180F83910F0E770B53B
:10213000040004D094F83900002510B106E0012015
:1021400070BD84F83850204600F020F8022084F852
:1021500039002068C16821F40051C160204604F0B4
:10216000C5FA2068016921F4904101612068416944
:1021700021F02A0141612068C16841F40051C16029
:10218000E563012084F83900002070BD30B50446B5
:102190000068204987B0884239D11F48016841F062
:1021A00001010160006800F0010005901A48143038
:1021B000016841F0100101600068012100F0100089
:1021C00005904FF4007000900220CDE901010390CA
:1021D0000720124D049069462846FEF76BFB281530
:1021E000009069462846FEF765FB2068C16821F02B
:1021F0004001C1602068C16841F02001C160252014
:10220000FEF702FE032211462520FEF709FE07B065
:1022100030BD000000100140303802400000024094
:102220002DE9F047044690F8390099460D460128FB
:1022300001D0122857D125B31AB394F838000128D9
:1022400051D0012684F838600027E76394F83900FC
:10225000122819D0222084F83900A285E2854FF493
:102260008058E08D4B46401EE085A0684FF000028C
:1022700040454FF02001204616D104F024FBB0B9B0
:1022800004E00120BDE8F0873220E4E7206900285F
:102290002068406803D0C1B225F8011B12E0C0F3EA
:1022A000080125F8021B0DE004F00DFB08B1032026
:1022B000E8E7206900282068406801D000F07F002E
:1022C00005F8010BE08D0028CBD194F839003228B5
:1022D00005D084F8396084F838700020D2E71220E5
:1022E00084F83900F7E70220CCE770477047FEE733
:1022F00070B51B4886B00025016841F001010160FE
:10230000016801F001010591016841F004010160DB
:10231000016801F004010591016841F0800101604C
:102320000068032400F08000059002200126CDE91A
:102330000204CDE9006569460A48FEF7BBFA70035E
:1023400003948DE8610069460748FEF7B3FA0C2054
:10235000009069460548FEF7ADFA06B070BD000072
:10236000303802400000024000080240001C0240D9
:102370002DE9F0470126304C7703DFF8C080DFF805
:10238000C090304D01281DD02078A0B108212846EA
:10239000FEF77EFBC0B104212846FEF779FB98B119
:1023A00039464046FEF774FB70B101214846FEF7FE
:1023B0006FFB012808D008212846FEF769FB012899
:1023C00026D037E02670E1E70A2004F007FB002062
:1023D000207008212846FEF75BFB80B104212846C7
:1023E000FEF756FB70B139464046FEF751FB58B137
:1023F00001214846FEF74CFB012807D01AE00120D6
:10240000BDE8F0870220FBE70320F9E70420F7E7A7
:1024100004212846FEF73CFB01280BD139464046F3
:10242000FEF736FB012805D101214846FEF730FBB7
:1024300000B926700020E3E74800002000080240B1
:1024400000000240001C024070B50E490E4A0646CC
:1024500008881268002422B13046BDE8704003F0BD
:1024600043B94D8800214543084602F0A1FF03F01F
:1024700003F9B1B2054801E00180641CAC42FBD312
:1024800070BD0000D0A90220BCAA02200000086094
:102490002DE9F05F3E4C3F4DA071296839B103F042
:1024A00043F9E88A2080288B6080BDE8F09F384996
:1024B0002C252B2689884FF0F00845F210594FF44F
:1024C000305A4FF4285B4FF42C5E2A274FF44873A0
:1024D0004FF4A07C4FF4F07260B1A4F800C0A4F8EF
:1024E0000280494532D1A4F808A0A4F80AB0A4F8A3
:1024F0000CE042E0A4F80080A4F802C0494506D1EF
:10250000A4F808A0A4F80AB0A4F80CE011E0A1F522
:10251000C850633825810AD06781A681A1F5A640FD
:10252000103809D0A1F5EE40963805D007E0668155
:10253000A78122806380F1E7A4F800C06280A1F542
:10254000184006381FD1228063801CE0A1F5C850D6
:1025500063380FD0A1F5184006380BD0258167816C
:10256000A681A1F5A64010380AD0A1F5EE40963814
:1025700006D008E025816781A68123806280F0E78C
:102580002280A4F802C0BDE8F05F002002F03EBE49
:10259000D0A90220BCAA02202DE9F041044634480B
:1025A0000D46006820B12046BDE8F04103F0D0B8E8
:1025B000304E270A3046B1884089A1F5AA434FEA38
:1025C0001528103B0FD0A1F5C853633B24D003F06E
:1025D00047F8384603F038F8E0B203F035F8B08930
:1025E00003F03EF836E003F03BF8384603F02CF8F1
:1025F0007089401C80B203F033F8E0B203F024F895
:10260000B08903F02DF8404603F01EF8B089401C55
:1026100080B203F025F820E0B17919B93188091B9F
:10262000491E8CB203F01CF8270A384603F00CF858
:10263000E0B203F009F8384603F006F8E0B203F020
:1026400003F8B08903F00CF8404602F0FDFFE8B251
:1026500002F0FAFF404602F0F7FFE8B202F0F4FFA2
:10266000054930890880881C0280BDE8F08100009F
:10267000BCAA0220D0A90220FEFF07602DE9F04F7E
:1026800095B003F021FAF84C47F2897545F21036FF
:10269000A08045F2105947F2967849F6060A41F6AD
:1026A000631B18B103F0CCF802F03BBDEF480027E4
:1026B000016841F002010160006810A900F0020009
:1026C0000090202010900120119012900320139070
:1026D000E748FEF7EFF8E4484FF02041503802AAEF
:1026E0000160E449C0E901171021C760C0E9047125
:1026F00087610902C761C0E909718900C0E90B71EE
:1027000089014763C0E90E7146210B910F20CDE985
:102710000907CDE902070490D3480F9709A9089744
:102720005038FFF702FC322004F058F9D32002F0B1
:1027300097FF02F039FDA08002F036FDA08002F084
:1027400033FD4FF6FF7707EA0020A08002F02CFD52
:10275000A1880843A0F51341A08041397DD0042011
:1027600002F07EFF02F020FDA08002F01DFDA0809F
:1027700002F01AFD07EA0020A08002F015FDA188F2
:102780000843A0F50541A080523967D0A84264D023
:10279000D42002F065FF02F007FDA08002F004FDE6
:1027A000A08002F001FD07EA0020A08002F0FCFCFE
:1027B000A1880843A080B04276D0D32002F050FF19
:1027C00002F0F2FCA08002F0EFFCA08002F0ECFC32
:1027D00007EA0020A08002F0E7FCA1880843A0805F
:1027E000404561D055214FF4704002F04FFFAA21BF
:1027F0004FF2010002F04AFF52214FF2020002F0B4
:1028000045FF08214FF2030002F040FF01214FF283
:10281000040002F03BFF4FF4454002F021FF02F0BC
:10282000C3FC07EA0020A0804CF2015002F018FF20
:1028300002F0BAFCA1880843A080052004F0CEF87D
:10284000A188494530D0D32002F00AFF02F0ACFC49
:10285000A08002F0A9FCA08001E020E020E002F0CE
:10286000A3FC07EA0020A08002F09EFCA188084398
:10287000A080504518D0A12002F0F2FE02F094FC96
:10288000A08002F091FC07EA0020A08002F08CFCFE
:10289000A1880843A0F5AE41A080613902D003E0D1
:1028A000A58001E0A4F804B0A18873A0FDF700FDA5
:1028B000A088A0F5134141397ED0A8427DD11120D6
:1028C00002F0CEFE782004F089F8362002F0C8FE2F
:1028D000002002F0B9FE3A2002F0C2FE052002F00C
:1028E000B3FEB22002F0BCFE0C2002F0ADFE0C20C4
:1028F00002F0AAFE002002F0A7FE332002F0A4FEA0
:10290000332002F0A1FEB72002F0AAFE352002F02B
:102910009BFEBB2002F0A4FE322002F095FEC020F8
:1029200002F09EFE0C2002F08FFEC22002F098FE04
:10293000012002F089FEC32002F092FE102002F076
:1029400083FEC42002F08CFE202002F07DFEC62013
:1029500002F086FE0F2002F077FED02002F080FE0B
:10296000A42002F071FEA12002F06EFEE02002F031
:1029700077FED02002F068FE002002F065FE022003
:1029800002F062FE072002F05FFE0A2002F05CFE09
:10299000282002F059FE322002F056FE442002F0B8
:1029A00053FE422002F050FE062002F04DFE0E20A3
:1029B00002F04AFE122001E066E077E102F044FEF8
:1029C000142002F041FE172002F03EFEE12002F04A
:1029D00047FED02002F038FE002002F035FE022033
:1029E00002F032FE072002F02FFE0A2002F02CFE39
:1029F000282002F029FE312002F026FE542002F0A9
:102A000023FE472002F020FE0E2002F01DFE1C20B7
:102A100002F01AFE172002F017FE1B2002F014FE2F
:102A20001E2002F011FE2A2002F01AFE002002F001
:102A30000BFE002002F008FE002002F005FEEF2051
:102A400002F002FE2B2002F00BFE002002F0FCFD43
:102A5000002002F0F9FD012002F0F6FD3F2002F017
:102A6000F3FD292002F0A0BAD0A90220303802409C
:102A700000040240040100A0204C43442049443A91
:102A800025780D0A00000000CF2002F0E9FD0020AB
:102A900002F0DAFDC12002F0D7FD302002F0D4FDB3
:102AA000ED2002F0DDFD642002F0CEFD032002F0F7
:102AB000CBFD122002F0C8FD812002F0C5FDE82008
:102AC00002F0CEFD852002F0BFFD102002F0BCFD1B
:102AD0007A2002F0B9FDCB2002F0C2FD392002F0CD
:102AE000B3FD2C2002F0B0FD002002F0ADFD34203B
:102AF00002F0AAFD022002F0A7FDF72002F0B0FDCF
:102B0000202002F0A1FDEA2002F0AAFD002002F040
:102B10009BFD002002F098FDC02002F0A1FD1B20CB
:102B200002F092FDC12002F09BFD012002F08CFD1D
:102B3000C52002F095FD302002F086FD302002F025
:102B400083FDC72002F08CFDB72002F07DFD36200A
:102B500002F086FD482002F077FD3A2002F080FD69
:102B6000552002F071FDB12002F07AFD002002F044
:102B70006BFD1A2002F068FDB62002F071FD0A20FC
:102B800002F062FDA22002F05FFDF22002F068FD7B
:102B9000002002F059FD262002F062FD012002F023
:102BA00053FDE02002F05CFD0F2002F04DFD2A20D5
:102BB00002F04AFD282002F047FD082002F044FD03
:102BC0000E2002F041FD082002F03EFD542002F0EC
:102BD0003BFDA92002F038FD432002F035FD0A201C
:102BE00002F032FD0F2002F02FFD002002F02CFD3C
:102BF000002002F029FD002002F026FD002002F056
:102C000023FDE12002F02CFD002002F01DFD152027
:102C100002F01AFD172002F017FD072002F014FD44
:102C2000112002F011FD062002F00EFD2B2002F013
:102C30000BFD562002F008FD3C2002F005FD0520AA
:102C400002F002FD102002F0FFFC0F2002F0FCFC5D
:102C50003F2002F0F9FC3F2002F0F6FC0F2002F0CA
:102C6000F3FC2B2002F0FCFC002002F0EDFC002025
:102C700002F0EAFC012002F0E7FC3F2002F0E4FC55
:102C80002A2002F0EDFC002002F0DEFC002002F021
:102C9000DBFC002002F0D8FCEF2002F0D5FC112074
:102CA00002F0DEFC782003F099FEDAE6B0427CD137
:102CB000ED2002F0D5FC012002F0C6FCFE2002F05F
:102CC000C3FCEE2002F0CCFCDE2002F0BDFC212093
:102CD00002F0BAFCF12002F0C3FC012002F0B4FCC7
:102CE000DF2002F0BDFC102002F0AEFCC42002F098
:102CF000B7FC8F2002F0A8FCC62002F0B1FC002037
:102D000002F0A2FCE22002F09FFCE22002F09CFC18
:102D1000E22002F099FCBF2002F0A2FCAA2002F0FF
:102D200093FCB02002F09CFC0D2002F08DFC0020F2
:102D300002F08AFC0D2002F087FC002002F084FCE7
:102D4000112002F081FC002002F07EFC192002F02C
:102D50007BFC002002F078FC212002F075FC0020B2
:102D600002F072FC2D2002F06FFC002002F06CFCDF
:102D70003D2002F069FC002002F066FC5D2002F0BC
:102D800063FC002002F060FC5D2002F05DFC00208E
:102D900002F05AFCB12002F063FC802002F054FCE7
:102DA000002002F051FC8B2000E0FCE302F04CFC20
:102DB000002002F049FC962002F046FC002002F0C0
:102DC00043FCB22002F04CFC002002F03DFC00204D
:102DD00002F03AFC022002F037FC002002F034FC42
:102DE000032002F031FC002002F02EFCB32002F0A0
:102DF00037FC002002F028FC002002F025FC002017
:102E000002F022FC002002F01FFC002002F01CFC5B
:102E1000002002F019FC002002F016FC002002F055
:102E200013FC002002F010FC002002F00DFC00203A
:102E300002F00AFC002002F007FC002002F004FC73
:102E4000002002F001FC002002F0FEFB002002F056
:102E5000FBFB002002F0F8FB002002F0F5FB002055
:102E600002F0F2FB002002F0EFFB002002F0ECFB8E
:102E7000002002F0E9FB002002F0E6FB002002F057
:102E8000E3FBB42002F0ECFB8B2002F0DDFB002022
:102E900002F0DAFB962002F0D7FB002002F0D4FB10
:102EA000A12002F0D1FB002002F0CEFBB52002F001
:102EB000D7FB022002F0C8FB002002F0C5FB032074
:102EC00002F0C2FB002002F0BFFB042002F0BCFBBA
:102ED000002002F0B9FBB62002F0C2FB002002F095
:102EE000B3FB002002F0B0FBB72002F0B9FB0020DA
:102EF00002F0AAFB002002F0A7FB3F2002F0A4FB97
:102F0000002002F0A1FB5E2002F09EFB002002F0F8
:102F10009BFB642002F098FB002002F095FB8C20C4
:102F200002F092FB002002F08FFBAC2002F08CFB41
:102F3000002002F089FBDC2002F086FB002002F07A
:102F400083FB702002F080FB002002F07DFB9020CC
:102F500002F07AFB002002F077FBEB2002F074FB1A
:102F6000002002F071FBDC2002F06EFB002002F07A
:102F70006BFBB82002F074FB002002F065FB002020
:102F800002F062FB002002F05FFB002002F05CFB1D
:102F9000002002F059FB002002F056FB002002F056
:102FA00053FB002002F050FBBA2002F059FB242012
:102FB00002F04AFB002002F047FB002002F044FB35
:102FC000002002F041FBC12002F04AFB202002F069
:102FD0003BFB002002F038FB542002F035FB0020C0
:102FE00002F032FBFF2002F02FFB002002F02CFB4E
:102FF000C22002F035FB0A2002F026FB002002F07E
:1030000023FB042002F020FB002002F01DFBC32064
:1030100002F026FB3C2002F017FB002002F014FB1C
:103020003A2002F011FB002002F00EFB392002F0E2
:103030000BFB002002F008FB372002F005FB00200C
:1030400002F002FB3C2002F0FFFA002002F0FCFA42
:10305000362002F0F9FA002002F0F6FA322002F0EF
:10306000F3FA002002F0F0FA2F2002F0EDFA00202F
:1030700002F0EAFA2C2002F0E7FA002002F0E4FA6B
:10308000292002F0E1FA002002F0DEFA262002F008
:10309000DBFA002002F0D8FA242002F0D5FA002052
:1030A00002F0D2FA242002F0CFFA002002F0CCFA8B
:1030B000232002F0C9FA002002F0C6FA3C2002F0F8
:1030C000C3FA002002F0C0FA362002F0BDFA002058
:1030D00002F0BAFA322002F0B7FA002002F0B4FA95
:1030E0002F2002F0B1FA002002F0AEFA2C2002F0FC
:1030F000ABFA002002F0A8FA292002F0A5FA00207D
:1031000002F0A2FA262002F09FFA002002F09CFAB8
:10311000242002F099FA002002F096FA242002F00E
:1031200093FA002002F090FA232002F08DFA00209A
:1031300002F08AFAC42002F093FA622002F084FAC4
:10314000002002F081FA052002F07EFA002002F051
:103150007BFA842002F078FA002002F075FAF02061
:1031600002F072FA002002F06FFA182002F06CFAF6
:10317000002002F069FAA42002F066FA002002F0B2
:1031800063FA182002F060FA002002F05DFA502085
:1031900002F05AFA002002F057FA0C2002F054FA1A
:1031A000002002F051FA172002F04EFA002002F03F
:1031B0004BFA952002F048FA002002F045FAF3207D
:1031C00002F042FA002002F03FFAE62002F03CFA58
:1031D000002002F039FAC52002F042FA322002F053
:1031E00033FA002002F030FA442002F02DFA0020D9
:1031F00002F02AFA652002F027FA002002F024FAF1
:10320000762002F021FA002002F01EFA882002F057
:103210001BFA002002F018FAC62002F021FA202042
:1032200002F012FA002002F00FFA172002F00CFA56
:10323000002002F009FA012002F006FA002002F054
:1032400003FAC72002F00CFA002002F0FDF900207A
:1032500002F0FAF9002002F0F7F9002002F0F4F988
:10326000C82002F0FDF9002002F0EEF9002002F083
:10327000EBF9002002F0E8F9002002F0E5F9C9209E
:1032800002F0EEF9002002F0DFF9002002F0DCF994
:10329000002002F0D9F9002002F0D6F9002002F057
:1032A000D3F9002002F0D0F9002002F0CDF900207F
:1032B00002F0CAF9002002F0C7F9002002F0C4F9B8
:1032C000002002F0C1F9002002F0BEF9002002F057
:1032D000BBF9002002F0B8F9002002F0B5F9002097
:1032E00002F0B2F9E02002F0BBF9162002F0ACF9CE
:1032F000002002F0A9F91C2002F0A6F9002002F03B
:10330000A3F9212002F0A0F9002002F09DF9362057
:1033100002F09AF9002002F097F9462002F094F9A1
:10332000002002F091F9522002F08EF9002002F004
:103330008BF9642002F088F9002002F085F97A20E8
:1033400002F082F9002002F07FF98B2002F07CF974
:10335000002002F079F9992002F076F9002002F0BD
:1033600073F9A82002F070F9002002F06DF9B9207D
:1033700002F06AF9002002F067F9C42002F064F953
:10338000002002F061F9CA2002F05EF9002002F08C
:103390005BF9D22002F058F9002002F055F9D9204B
:1033A00002F052F9002002F04FF9E02002F04CF94F
:1033B000002002F049F9F32002F046F9002002F063
:1033C00043F9E12002F04CF9162002F03DF900200B
:1033D00002F03AF91C2002F037F9002002F034F92B
:1033E000222002F031F9002002F02EF9362002F0FE
:1033F0002BF9002002F028F9452002F025F90020E1
:1034000002F022F9522002F01FF9002002F01CF90C
:10341000642002F019F9002002F016F97A2002F077
:1034200013F9002002F010F98B2002F00DF90020B2
:1034300002F00AF9992002F007F9002002F004F9DD
:10344000A82002F001F9002002F0FEF8B92002F0F5
:10345000FBF8002002F0F8F8C42002F0F5F8002094
:1034600002F0F2F8CA2002F0EFF8002002F0ECF8C7
:10347000D22002F0E9F8002002F0E6F8D82002F0AD
:10348000E3F8002002F0E0F8E02002F0DDF8002090
:1034900002F0DAF8F32002F0D7F8002002F0D4F8B6
:1034A000E22002F0DDF8052002F0CEF8002002F064
:1034B000CBF80B2002F0C8F8002002F0C5F81B2062
:1034C00002F0C2F8002002F0BFF8342002F0BCF88D
:1034D000002002F0B9F8442002F0B6F8002002F013
:1034E000B3F84F2002F0B0F8002002F0ADF86120F0
:1034F00002F0AAF8002002F0A7F8792002F0A4F860
:10350000002002F0A1F8882002F09EF8002002F0CE
:103510009BF8972002F098F8002002F095F8A6207A
:1035200002F092F8002002F08FF8B72002F08CF839
:10353000002002F089F8C22002F086F8002002F094
:1035400083F8C72002F080F8002002F07DF8D12037
:1035500002F07AF8002002F077F8D62002F074F832
:10356000002002F071F8DD2002F06EF8002002F079
:103570006BF8F32002F068F8002002F065F8E32011
:1035800002F06EF8052002F05FF8002002F05CF80F
:103590000A2002F059F8002002F056F81C2002F030
:1035A00053F8002000E0FDE202F04EF8332002F074
:1035B0004BF8002002F048F8442002F045F80020C3
:1035C00002F042F8502002F03FF8002002F03CF8F0
:1035D000622002F039F8002002F036F8782002F07C
:1035E00033F8002002F030F8882002F02DF8002097
:1035F00002F02AF8972002F027F8002002F024F8C1
:10360000A62002F021F8002002F01EF8B72002F0F8
:103610001BF8002002F018F8C22002F015F8002074
:1036200002F012F8C72002F00FF8002002F00CF8A8
:10363000D12002F009F8002002F006F8D52002F0AF
:1036400003F8002002F000F8DD2001F0FDFF00206B
:1036500001F0FAFFF32001F0F7FF002001F0F4FF82
:10366000E42001F0FDFF012001F0EEFF002001F059
:10367000EBFF012001F0E8FF002001F0E5FF022050
:1036800001F0E2FF002001F0DFFF2A2001F0DCFF63
:10369000002001F0D9FF3C2001F0D6FF002001F00E
:1036A000D3FF4B2001F0D0FF002001F0CDFF5D20C3
:1036B00001F0CAFF002001F0C7FF742001F0C4FF31
:1036C000002001F0C1FF842001F0BEFF002001F0C6
:1036D000BBFF932001F0B8FF002001F0B5FFA2204E
:1036E00001F0B2FF002001F0AFFFB32001F0ACFF0A
:1036F000002001F0A9FFBE2001F0A6FF002001F08C
:10370000A3FFC42001F0A0FF002001F09DFFCD2009
:1037100001F09AFF002001F097FFD32001F094FF01
:10372000002001F091FFDD2001F08EFF002001F06C
:103730008BFFF32001F088FF002001F085FFE520DA
:1037400001F08EFF002001F07FFF002001F07CFFE0
:10375000002001F079FF002001F076FF022001F047
:1037600073FF002001F070FF292001F06DFF0020A1
:1037700001F06AFF3C2001F067FF002001F064FFC8
:103780004B2001F061FF002001F05EFF5D2001F0A1
:103790005BFF002001F058FF742001F055FF00206E
:1037A00001F052FF842001F04FFF002001F04CFF98
:1037B000932001F049FF002001F046FFA22001F014
:1037C00043FF002001F040FFB32001F03DFF002047
:1037D00001F03AFFBE2001F037FF002001F034FF76
:1037E000C42001F031FF002001F02EFFCD2001F0B8
:1037F0002BFF002001F028FFD32001F025FF00203F
:1038000001F022FFDC2001F01FFF002001F01CFF6F
:10381000F32001F019FF002001F016FFE62001F06F
:103820001FFF112001F010FF002001F00DFF3420D8
:1038300001F00AFF002001F007FF562001F004FF0D
:10384000002001F001FF762001F0FEFE002001F0D3
:10385000FBFE772001F0F8FE002001F0F5FE662067
:1038600001F0F2FE002001F0EFFE882001F0ECFEF6
:10387000002001F0E9FE992001F0E6FE002001F0B1
:10388000E3FEBB2001F0E0FE002001F0DDFE992008
:1038900001F0DAFE002001F0D7FE662001F0D4FE30
:1038A000002001F0D1FE552001F0CEFE002001F0F5
:1038B000CBFE552001F0C8FE002001F0C5FE4520DA
:1038C00001F0C2FE002001F0BFFE432001F0BCFE6B
:1038D000002001F0B9FE442001F0B6FE002001F006
:1038E000B3FEE72001F0BCFE322001F0ADFE002067
:1038F00001F0AAFE552001F0A7FE002001F0A4FE71
:10390000762001F0A1FE002001F09EFE662001F06D
:103910009BFE002001F098FE672001F095FE00203C
:1039200001F092FE672001F08FFE002001F08CFE76
:10393000872001F089FE002001F086FE992001F029
:1039400083FE002001F080FEBB2001F07DFE002000
:1039500001F07AFE992001F077FE002001F074FE5C
:10396000772001F071FE002001F06EFE442001F08E
:103970006BFE002001F068FE562001F065FE00207D
:1039800001F062FE232001F05FFE002001F05CFEEA
:10399000332001F059FE002001F056FE452001F0D1
:1039A00053FE002001F050FEE82001F059FE0020F7
:1039B00001F04AFE002001F047FE992001F044FE8C
:1039C000002001F041FE872001F03EFE002001F0C2
:1039D0003BFE882001F038FE002001F035FE772004
:1039E00001F032FE002001F02FFE662001F02CFED7
:1039F000002001F029FE882001F026FE002001F0C1
:103A000023FEAA2001F020FE002001F01DFEBB20B5
:103A100001F01AFE002001F017FE992001F014FEBB
:103A2000002001F011FE662001F00EFE002001F0E2
:103A30000BFE552001F008FE002001F005FE552088
:103A400001F002FE002001F0FFFD442001F0FCFD2A
:103A5000002001F0F9FD442001F0F6FD002001F006
:103A6000F3FD552001F0F0FD002001F0EDFDE9200F
:103A700001F0F6FDAA2001F0E7FD002001F0E4FDD1
:103A8000002001F0E1FD002001F0DEFD002001F04A
:103A9000E7FDAA2001F0D8FDCF2001F0E1FD0020D4
:103AA00001F0D2FD002001F0CFFD002001F0CCFD9F
:103AB000002001F0C9FD002001F0C6FD002001F04A
:103AC000C3FD002001F0C0FD002001F0BDFD00207D
:103AD00001F0BAFD002001F0B7FD002001F0B4FDB7
:103AE000002001F0B1FD002001F0AEFD002001F04A
:103AF000ABFD002001F0A8FD002001F0A5FD002095
:103B000001F0A2FDF02001F0ABFD002001F09CFDD2
:103B1000502001F099FD002001F096FD002001F0F9
:103B200093FD002001F090FDF32001F099FD0020AD
:103B300001F08AFDF92001F093FD062001F084FDDB
:103B4000102001F081FD292001F07EFD002001F010
:103B50007BFD3A2001F084FD552001F075FD112018
:103B600001F07EFD642002F039FF292001F078FD8C
:103B7000352001F075FD002001F066FD512001F0B7
:103B80006FFDFF2001F060FD532001F069FD2C2046
:103B900001F05AFD552001F063FD822001F054FD33
:103BA00001F001BA48457DD155214FF4704001F034
:103BB0006DFDAA214FF2010001F068FD52214FF284
:103BC000020001F063FD4FF203030821184601F0E3
:103BD0005DFD4FF204070121384601F057FD0D212C
:103BE0004FF4304001F052FD0D214BF2010001F085
:103BF0004DFD0D214BF2020001F048FD34214FF440
:103C0000364001F043FD34214BF2016001F03EFDEE
:103C100034214BF2026001F039FD0D214FF43140A7
:103C200001F034FD0D214BF2011001F02FFD0D21AB
:103C30004BF2021001F02AFD34214FF4374001F01D
:103C400025FD34214BF2017001F020FD34214BF2AF
:103C5000027001F01BFD00214FF4324001F016FD0F
:103C600000214BF2012001F011FD00214BF2022056
:103C700001F00CFD24214FF4384001F007FD242110
:103C80004BF6010001F002FD24214BF6020001F089
:103C9000FDFC01214FF43F4001F0F8FC0F214FF4EF
:103CA000334000E0FEE301F0F1FC0F214BF2013064
:103CB00001F0ECFC0F214BF2023001F0E7FC342163
:103CC0004FF4394001F0E2FC34214BF6011001F0D1
:103CD000DDFC34214BF6021001F0D8FC08214FF432
:103CE000354001F0D3FC08214BF2015001F0CEFC2D
:103CF00008214BF2025001F0C9FC03214FF442406D
:103D000001F0C4FC24214FF43A4001F0BFFC24210F
:103D10004BF6012001F0BAFC24214BF6022001F001
:103D2000B5FC00214FF43C4001F0B0FC78214BF68B
:103D3000014001F0ABFC00214BF6024001F0A6FC73
:103D400000214FF43D4001F0A1FC78214BF60150D9
:103D500001F09CFC00214BF6025001F097FC002181
:103D60004FF43E4001F092FC64214BF6016001F0FB
:103D70008DFC00214FF4514001F088FC33214DF2BD
:103D8000011001F083FC00214DF2021001F07EFCD5
:103D900034214DF2031001F079FC00214DF20410A2
:103DA00001F074FC3A214DF2051001F06FFC002186
:103DB0004DF2061001F06AFC4A214DF2071001F0A5
:103DC00065FC00214DF2081001F060FC5C214DF211
:103DD000091001F05BFC00214DF20A1001F056FCC5
:103DE00081214DF20B1001F051FC00214DF20C101D
:103DF00001F04CFCA6214DF20D1001F047FC002112
:103E00004DF20E1001F042FCE5214DF20F1001F0D1
:103E10003DFC01214DF2101001F038FC13214DF250
:103E2000111001F033FC01214DF2121001F02EFCB3
:103E300054214DF2131001F029FC01214DF2141010
:103E400001F024FC82214DF2151001F01FFC01212C
:103E50004DF2161001F01AFCCA214DF2171001F0B4
:103E600015FC02214DF2181001F010FC00214DF25A
:103E7000191001F00BFC02214DF21A1001F006FCA2
:103E800001214DF21B1001F001FC02214DF21C102A
:103E900001F0FCFB34214DF21D1001F0F7FB022173
:103EA0004DF21E1001F0F2FB67214DF21F1001F0E0
:103EB000EDFB02214DF2201001F0E8FB84214DF2D0
:103EC000211001F0E3FB02214DF2221001F0DEFB94
:103ED000A4214DF2231001F0D9FB02214DF2241050
:103EE00001F0D4FBB7214DF2251001F0CFFB0221E8
:103EF0004DF2261001F0CAFBCF214DF2271001F040
:103F0000C5FB02214DF2281001F0C0FBDE214DF26D
:103F1000291001F0BBFB02214DF22A1001F0B6FB83
:103F2000F2214DF22B1001F0B1FB02214DF22C10C9
:103F300001F0ACFBFE214DF22D1001F0A7FB032197
:103F40004DF22E1001F0A2FB10214DF22F1001F0C6
:103F50009DFB03214DF2301001F098FB33214DF20F
:103F6000311001F093FB03214DF2321001F08EFB72
:103F70006D214DF2331001F089FB00214FF45240C6
:103F800001F084FB33214DF2012001F07FFB002181
:103F90004DF2022001F07AFB34214DF2032001F0B2
:103FA00075FB00214DF2042001F070FB3A214DF227
:103FB000052001F06BFB00214DF2062001F066FBAD
:103FC0004A214DF2072001F061FB00214DF208204B
:103FD00001F05CFB5C214DF2092001F057FB002150
:103FE0004DF20A2001F052FB81214DF20B2001F02D
:103FF0004DFB00214DF20C2001F048FBA6214DF2B3
:104000000D2001F043FB00214DF20E2001F03EFB9C
:10401000E5214DF20F2001F039FB01214DF2102076
:1040200001F034FB13214DF2112001F02FFB01218F
:104030004DF2122001F02AFB54214DF2132001F021
:1040400025FB01214DF2142001F020FB82214DF2CD
:10405000152001F01BFB01214DF2162001F016FB8B
:10406000CA214DF2172001F011FB02214DF2182058
:1040700001F00CFB00214DF2192001F007FB022199
:104080004DF21A2001F002FB01214DF21B2001F03C
:10409000FDFA02214DF21C2001F0F8FA34214DF214
:1040A0001D2001F0F3FA02214DF21E2001F0EEFA7C
:1040B00067214DF21F2001F0E9FA02214DF2202084
:1040C00001F0E4FA84214DF2212001F0DFFA02210F
:1040D0004DF2222001F0DAFAA4214DF2232001F062
:1040E000D5FA02214DF2242001F0D0FAB7214DF289
:1040F000252001F0CBFA02214DF2262001F0C6FA6C
:10410000CF214DF2272001F0C1FA02214DF22820E3
:1041100001F0BCFADE214DF2292001F0B7FA0221AC
:104120004DF22A2001F0B2FAF2214DF22B2001F0DB
:10413000ADFA02214DF22C2001F0A8FAFE214DF239
:104140002D2001F0A3FA03214DF22E2001F09EFA5A
:1041500010214DF22F2001F099FA03214DF2302069
:1041600001F094FA33214DF2312001F08FFA03214E
:104170004DF2322001F08AFA6D214DF2332001F028
:1041800085FA00214FF4534001F080FA33214DF2BB
:10419000013001F07BFA00214DF2023001F076FA95
:1041A00034214DF2033001F071FA00214DF2043058
:1041B00001F06CFA3A214DF2053001F067FA002166
:1041C0004DF2063001F062FA4A214DF2073001F05B
:1041D0005DFA00214DF2083001F058FA5C214DF2F1
:1041E000093001F053FA00214DF20A3001F04EFA85
:1041F00081214DF20B3001F049FA00214DF20C30D3
:1042000001F044FAA6214DF20D3001F03FFA0021F1
:104210004DF20E3001F03AFAE5214DF20F3001F087
:1042200035FA01214DF2103001F030FA13214DF230
:10423000113001F02BFA01214DF2123001F026FA73
:1042400054214DF2133001F021FA01214DF21430C6
:1042500001F01CFA82214DF2153001F017FA01210C
:104260004DF2163001F012FACA214DF2173001F06A
:104270000DFA02214DF2183001F008FA00214DF23A
:10428000193001F003FA02214DF21A3001F0FEF963
:1042900001214DF21B3001F0F9F902214DF21C30E1
:1042A00001F0F4F934214DF21D3001F0EFF9022153
:1042B0004DF21E3001F0EAF967214DF21F3001F096
:1042C000E5F902214DF2203001F0E0F984214DF2B0
:1042D000213001F0DBF902214DF2223001F0D6F954
:1042E000A4214DF2233001F0D1F902214DF2243006
:1042F00001F0CCF9B7214DF2253001F0C7F90221C8
:104300004DF2263001F0C2F9CF214DF2273001F0F5
:10431000BDF902214DF2283001F0B8F9DE214DF24D
:10432000293001F0B3F902214DF22A3001F0AEF943
:10433000F2214DF22B3001F0A9F902214DF22C307F
:1043400001F0A4F9FE214DF22D3001F09FF9032177
:104350004DF22E3001F09AF910214DF22F3001F07C
:1043600095F903214DF2303001F090F933214DF2EF
:10437000313001F08BF903214DF2323001F086F932
:104380006D214DF2333001F081F900214FF454409A
:1043900001F07CF933214DF2014001F077F9002161
:1043A0004DF2024001F072F934214DF2034001F068
:1043B0006DF900214DF2044001F068F93A214DF207
:1043C000054001F063F900214DF2064001F05EF96D
:1043D0004A214DF2074001F059F900214DF2084001
:1043E00001F054F95C214DF2094001F04FF9002130
:1043F0004DF20A4001F04AF981214DF20B4001F0E3
:1044000045F900214DF20C4001F040F9A6214DF292
:104410000D4001F03BF900214DF20E4001F036F95C
:10442000E5214DF20F4001F031F901214DF210402C
:1044300001F02CF913214DF2114001F027F901216F
:104440004DF2124001F022F954214DF2134001F0D7
:104450001DF901214DF2144001F018F982214DF2AD
:10446000154001F013F901214DF2164001F00EF94B
:10447000CA214DF2174001F009F902214DF218400E
:1044800001F004F900214DF2194001F0FFF802217A
:104490004DF21A4001F0FAF801214DF21B4001F0F3
:1044A000F5F800E0FCE202214DF21C4001F0EEF8CC
:1044B00034214DF21D4001F0E9F802214DF21E4079
:1044C00001F0E4F867214DF21F4001F0DFF802210E
:1044D0004DF2204001F0DAF884214DF2214001F044
:1044E000D5F802214DF2224001F0D0F8A4214DF27E
:1044F000234001F0CBF802214DF2244001F0C6F830
:10450000B7214DF2254001F0C1F802214DF22640BD
:1045100001F0BCF8CF214DF2274001F0B7F802219D
:104520004DF2284001F0B2F8DE214DF2294001F0B1
:10453000ADF802214DF22A4001F0A8F8F2214DF227
:104540002B4001F0A3F802214DF22C4001F09EF81F
:10455000FE214DF22D4001F099F803214DF22E403D
:1045600001F094F810214DF22F4001F08FF8032153
:104570004DF2304001F08AF833214DF2314001F024
:1045800085F803214DF2324001F080F86D214DF2A3
:10459000334001F07BF800214FF4554001F076F8EC
:1045A00033214DF2015001F071F800214DF202501B
:1045B00001F06CF834214DF2035001F067F800214E
:1045C0004DF2045001F062F83A214DF2055001F02D
:1045D0005DF800214DF2065001F058F84A214DF2E5
:1045E000075001F053F800214DF2085001F04EF849
:1045F0005C214DF2095001F049F800214DF20A50BA
:1046000001F044F881214DF20B5001F03FF80021F8
:104610004DF20C5001F03AF8A6214DF20D5001F088
:1046200035F800214DF20E5001F030F8E5214DF241
:104630000F5001F02BF801214DF2105001F026F837
:1046400013214DF2115001F021F801214DF21250C9
:1046500001F01CF854214DF2135001F017F801211C
:104660004DF2145001F012F882214DF2155001F074
:104670000DF801214DF2165001F008F8CA214DF253
:10468000175001F003F802214DF2185000F0FEFF20
:1046900000214DF2195000F0F9FF02214DF21A509D
:1046A00000F0F4FF01214DF21B5000F0EFFF02215A
:1046B0004DF21C5000F0EAFF34214DF21D5000F085
:1046C000E5FF02214DF21E5000F0E0FF67214DF2A0
:1046D0001F5000F0DBFF02214DF2205000F0D6FF0A
:1046E00084214DF2215000F0D1FF02214DF22250E1
:1046F00000F0CCFFA4214DF2235000F0C7FF0221AF
:104700004DF2245000F0C2FFB7214DF2255000F0C9
:10471000BDFF02214DF2265000F0B8FFCF214DF22F
:10472000275000F0B3FF02214DF2285000F0AEFFF9
:10473000DE214DF2295000F0A9FF02214DF22A504E
:1047400000F0A4FFF2214DF22B5000F09FFF022158
:104750004DF22C5000F09AFFFE214DF22D5000F04A
:1047600095FF03214DF22E5000F090FF10214DF2E5
:104770002F5000F08BFF03214DF2305000F086FFE8
:1047800033214DF2315000F081FF03214DF23250C0
:1047900000F07CFF6D214DF2335000F077FF0021D7
:1047A0004FF4564000F072FF33214DF2016000F0EB
:1047B0006DFF00214DF2026000F068FF34214DF2E0
:1047C000036000F063FF00214DF2046000F05EFF23
:1047D0003A214DF2056000F059FF00214DF20660CC
:1047E00000F054FF4A214DF2076000F04FFF002116
:1047F0004DF2086000F04AFF5C214DF2096000F0C4
:1048000045FF00214DF20A6000F040FF81214DF28A
:104810000B6000F03BFF00214DF20C6000F036FF12
:10482000A6214DF20D6000F031FF00214DF20E6027
:1048300000F02CFFE5214DF20F6000F027FF012171
:104840004DF2106000F022FF13214DF2116000F0D4
:104850001DFF01214DF2126000F018FF54214DF2AE
:10486000136000F013FF01214DF2146000F00EFF01
:1048700082214DF2156000F009FF01214DF2166012
:1048800000F004FFCA214DF2176000F0FFFE022184
:104890004DF2186000F0FAFE00214DF2196000F0B0
:1048A000F5FE02214DF21A6000F0F0FE01214DF2FA
:1048B0001B6000F0EBFE02214DF21C6000F0E6FEF2
:1048C00034214DF21D6000F0E1FE02214DF21E6028
:1048D00000F0DCFE67214DF21F6000F0D7FE0221E0
:1048E0004DF2206000F0D2FE84214DF2216000F0F4
:1048F000CDFE02214DF2226000F0C8FEA4214DF24F
:10490000236000F0C3FE02214DF2246000F0BEFEE1
:10491000B7214DF2256000F0B9FE02214DF226606C
:1049200000F0B4FECF214DF2276000F0AFFE02216F
:104930004DF2286000F0AAFEDE214DF2296000F061
:10494000A5FE02214DF22A6000F0A0FEF2214DF2F8
:104950002B6000F09BFE02214DF22C6000F096FED1
:10496000FE214DF22D6000F091FE03214DF22E60EC
:1049700000F08CFE10214DF22F6000F087FE032125
:104980004DF2306000F082FE33214DF2316000F0D4
:104990007DFE03214DF2326000F078FE6D214DF274
:1049A000336000F073FE5521381F00F06FFEAA211E
:1049B000F81E00F06BFE5221B81E00F067FE0821C1
:1049C000184600F063FE0021384600F05FFECC215F
:1049D0004FF4314000F05AFE00214BF2011000F07C
:1049E00055FE05214FF4364000F050FE70214FF483
:1049F000374000F04BFE70214BF2017000F046FE94
:104A000001214FF4384000F041FE03214BF6010034
:104A100000F03CFE03214BF6020000F037FE0321BC
:104A20004BF6030000F032FE02214FF43C4000F050
:104A30002DFE00214BF6014000F028FE00214BF630
:104A4000024000F023FED0214FF4494000F01EFE4A
:104A500002214CF6011000F019FE50214CF6021014
:104A600000F014FE50214CF6031000F00FFE502110
:104A70004CF6041000F00AFE00214FF4545000F0F0
:104A800005FE55214FF4685000F000FE4FF48850A9
:104A900000F0E6FD782001F0AFFF4FF4245083E2F0
:104AA00040457CD1112000F0DBFD782001F096FF1D
:104AB000362000F0D5FD482000F0C6FD3A2000F079
:104AC000CFFD552000F0C0FDF02000F0C9FDC3204F
:104AD00000F0BAFDF02000F0C3FD962000F0B4FD18
:104AE000B42000F0BDFD012000F0AEFDB62000F0C6
:104AF000B7FD0A2000F0A8FDA22000F0A5FDB72018
:104B000000F0AEFDC62000F09FFDB92000F0A8FD2A
:104B1000022000F099FDE02000F096FDC02000F09A
:104B20009FFD802000F090FD162000F08DFDC1203B
:104B300000F096FD192000F087FDC22000F090FDE6
:104B4000A72000F081FDC52000F08AFD162000F0AE
:104B50007BFDE82000F084FD402000F075FD8A20F8
:104B600000F072FD002000F06FFD002000F06CFDF1
:104B7000292000F069FD192000F066FDA52000F055
:104B800063FD332000F060FDE02000F069FDF020BF
:104B900000F05AFD072000F057FD0D2000E063E013
:104BA00000F052FD042000F04FFD052000F04CFD08
:104BB000142000F049FD362000F046FD542000F09E
:104BC00043FD4C2000F040FD382000F03DFD132057
:104BD00000F03AFD142000F037FD2E2000F034FDE7
:104BE000342000F031FDE12000F03AFDF02000F02B
:104BF0002BFD102000F028FD142000F025FD0E20D4
:104C000000F022FD0C2000F01FFD082000F01CFD2C
:104C1000352000F019FD442000F016FD4C2000F076
:104C200013FD262000F010FD102000F00DFD1220D5
:104C300000F00AFD2C2000F007FD322000F004FDFA
:104C4000F02000F00DFD3C2000F0FEFCF02000F014
:104C500007FD692000F0F8FC782001F0BFFE21205C
:104C600000F0FEFCFDF7FDBE50457CD1FF2000F0BA
:104C7000F7FCFF2000F0E8FC982000F0E5FC06209F
:104C800000F0E2FCBC2000F0EBFC012000F0DCFCBA
:104C90000F2000F0D9FC612000F0D6FCFF2000F0CE
:104CA000D3FC012000F0D0FC012000F0CDFC0B2053
:104CB00000F0CAFC102000F0C7FC372000F0C4FC54
:104CC000632000F0C1FCFF2000F0BEFCFF2000F0DC
:104CD000BBFC012000F0B8FC012000F0B5FC002076
:104CE00000F0B2FC002000F0AFFCFF2000F0ACFCB4
:104CF000522000F0A9FC012000F0A6FC002000F0EA
:104D0000A3FC402000F0A0FCBD2000F0A9FC012085
:104D100000F09AFC232000F097FC452000F094FC62
:104D2000672000F091FC012000F08EFC232000F0B1
:104D30008BFC452000F088FC672000F085FCBE203D
:104D400000F08EFC002000F07FFC012000F07CFCD5
:104D5000AB2000F079FC602000F076FC222000F00F
:104D600073FC222000E022E100F06EFC222000F023
:104D70006BFC222000F068FC222000F065FCC720BC
:104D800000F06EFC362000F05FFCED2000F068FCC7
:104D90007F2000F059FC0F2000F056FCC02000F0EE
:104DA0005FFC0F2000F050FC0B2000F04DFC0A20AF
:104DB00000F04AFCFC2000F053FC082000F044FC0A
:104DC000DF2000F04DFC002000F03EFC002000F051
:104DD0003BFC002000F038FC002000F035FC0020F7
:104DE00000F032FC202000F02FFCF32000F038FC13
:104DF000742000F029FCB42000F032FC002000F008
:104E000023FC002000F020FC002000F01DFCF72017
:104E100000F026FC822000F017FCB12000F020FCFE
:104E2000002000F011FC132000F00EFC132000F015
:104E30000BFCF22000F014FC802000F005FC0420A4
:104E400000F002FC402000F0FFFB282000F0FCFBFB
:104E5000C12000F005FC172000F0F6FB882000F0D0
:104E6000F3FB882000F0F0FB202000F0EDFBE020B9
:104E700000F0F6FB002000F0E7FB0A2000F0E4FB66
:104E8000122000F0E1FB102000F0DEFB0E2000F00D
:104E9000DBFB202000F0D8FBCC2000F0D5FB072066
:104EA00000F0D2FB062000F0CFFB0B2000F0CCFB83
:104EB0000E2000F0C9FB0F2000F0C6FB0D2000F013
:104EC000C3FB152000F0C0FB102000F0BDFB00204C
:104ED00000F0BAFBE12000F0C3FB002000F0B4FBBF
:104EE0000B2000F0B1FB132000F0AEFB0D2000F012
:104EF000ABFB0E2000F0A8FB1B2000F0A5FB7120EF
:104F000000F0A2FB062000F09FFB062000F09CFBB7
:104F10000A2000F099FB0F2000F096FB0E2000F015
:104F200093FB0F2000F090FB152000F08DFB0C2070
:104F300000F08AFB002000F087FB2A2000F090FBA5
:104F4000002000F081FB002000F07EFB012000F03B
:104F50007BFBDF2000F078FB2B2000F081FB0020A2
:104F600000F072FB002000F06FFB032000F06CFBF0
:104F70001F2000F069FB3A2000F072FB552000F082
:104F800063FB362000F06CFB002000F05DFB11207D
:104F900000F066FB782001F021FD292000F060FB85
:104FA000142001F01BFD2C2000F05AFBB9E05845FD
:104FB000FCD1E22000F054FB1D2000F045FB022054
:104FC00000F042FB042000F03FFB642001F014FDE0
:104FD000E02000F045FB012000F036FB0A2001F044
:104FE000FDFCE02000F03CFB032000F02DFB0C203A
:104FF00001F0F4FC012000F033FB0A2001F0EEFC8C
:10500000E62000F02DFB2F2000F01EFBFF2000F01B
:105010001BFBFF2000F018FBB02000F021FB20203C
:1050200000F012FB002000F00FFB032000F00CFB4F
:1050300040F21F3000F008FB012000F005FB40F2B9
:10504000DF1000F001FB002000F0FEFAB42000F0B9
:1050500007FB042000F0F8FA40F21F4000F0F4FAD9
:10506000002000F0F1FA2E2000F0EEFA002000F00F
:10507000EBFA002000F0E8FA002000F0E5FA00204A
:1050800000F0E2FAB62000F0EBFA022000F0DCFAC1
:105090004FF4037000F0D8FA002000F0D5FA172082
:1050A00000F0D2FA152000F0CFFA002000F0CCFA80
:1050B000002000F0C9FAF02000F0D2FA032000F03E
:1050C000C3FA292000F0CCFAD02000F0C9FA002061
:1050D00000F0BAFABE2000F0C3FA052000F0B4FADE
:1050E000FE2000F0B1FA012000F0AEFA002000F03E
:1050F000ABFA002000F0A8FA002000F0A5FAB820D2
:1051000000F0AEFA032000F09FFA012000F09CFAB4
:10511000BA2000F0A5FA012000F096FA642000F011
:105120004DF8A088A0F5134141390BD0B04209D009
:10513000484507D0584505D0A84203D0404501D086
:10514000504519D14FF02040D0F8041121F00F0143
:10515000C0F80411D0F8041121F47061C0F80411F2
:10516000D0F8041141F00501C0F80411D0F8041181
:1051700041F4A061C0F804110020FDF789F9054948
:105180000120C1F894024FF6FF70FDF75DF915B0EC
:10519000BDE8F08F008040420346012000E0584304
:1051A000491EC9B2FBD27047034808B50088ADF864
:1051B0000000BDF8000008BD0000086010B5024600
:1051C000BE2000F04DFA052000F03EFA104601F036
:1051D00032FF9FED0C1B53EC112B01F03FFF01F050
:1051E000FDFE80B200F030FA012000F02DFAFF2021
:1051F00000F02AFA002000F027FABDE81040002055
:1052000000F022BA666666666666044070B5674C52
:1052100000232146A279898841F66315012A01D02D
:105220001AB11BE0A94202D118E0A94216D1082800
:1052300014D2DFE800F00406080A0C0E1012062053
:105240000CE007200AE0042008E0052006E0012029
:1052500004E0002002E0032000E00220082812D22F
:10526000DFE800F0110406080A0C0E1080230AE0A3
:10527000402308E0C02306E0202304E0602302E08E
:10528000A02300E0E023362045F21056B14200D1C1
:105290000002A1F51342413A07D0A1F5EE42893A46
:1052A00003D0A1F5EE42963A01D143F00803194626
:1052B00000F0ECF9A288AA420AD0980620886188FA
:1052C00002D5884202D303E0884201D92180608060
:1052D0006089B24240D100F0C3F9002000F0B4F977
:1052E0006089401C80B200F0BBF9002000F0ACF9EE
:1052F0006089801C80B200F0B3F92088401EC0F3A2
:105300000F2000F0A1F96089C01C80B200F0A8F95C
:105310002078401EC0B200F097F9A08900F0A0F9F3
:10532000002000F091F9A089401C80B200F098F9AB
:10533000002000F089F9A089801C80B200F090F96B
:105340006088401EC0F30F2000F07EF9A089C01CC9
:1053500080B200F085F921E000F082F9002000F031
:1053600073F9002000F070F92088401EC0F30F2070
:1053700000F06AF92078401EC0B200F065F9A089FB
:1053800000F06EF9002000F05FF9002000F05CF9F9
:105390006088401EC0F30F2000F056F9A078BDE8E9
:1053A0007040401EC0B200F04FB90000D0A90220EA
:1053B000F0B53A4D0C460246060AA9882846270A47
:1053C0004089A1F5C853633B16D0A1F5AA43103B11
:1053D0004BD000F045F9304600F036F9D0B200F07D
:1053E00033F9A88900F03CF9384600F02DF9E0B215
:1053F000BDE8F04000F028B9A97929B300F030F9F0
:10540000304600F021F9D0B200F01EF92888401E85
:10541000C0F30F2000F018F92878401EC0B200F049
:1054200013F9A88900F01CF9384600F00DF9E0B234
:1054300000F00AF96888401EC0F30F2000F004F95C
:10544000A878401EC0B2D3E72988891A491E8AB2BB
:1054500000F006F9002000F0F7F8002000F0F4F862
:10546000100A00F0F1F8D0B2D9E700F0F9F83046B0
:1054700000F0EAF86889401C80B200F0F1F8D0B280
:1054800000F0E2F8A88900F0EBF8384600F0DCF80C
:10549000A889401C80B200F0E3F8A8E7D0A9022058
:1054A0002DE9F84F82461F460E468B46580700D01E
:1054B000012000EBD700790810FB01F0203AC0B2C0
:1054C00002F0FF090025009047E00C2F10D0102FAC
:1054D00012D0182F14D0202F42D1224901EBC9102D
:1054E0004FF00008445D200610D51F48026811E007
:1054F00009EB49001D4906E01D4901EB0910EFE7E2
:105500001C4909EBC90001EB8000E9E70A9828B9BA
:105510001548426831465046FDF73EF86006040ED5
:105520001548761CB6B24088B04219D9A6EB0B00DC
:10553000B84209D10AF101001FFA80FA0E485E460E
:10554000018851450CD906E008F1010000F0FF0880
:10555000B8F1080FC7D36D1CEDB200988542B4D3E3
:10556000BDE8F88F588A00084C00002098720008A7
:105570000C770008FC7C0008D0A902202DE9FF4F21
:1055800081B00027DDF838B01D46924680463C4683
:10559000B9464FEA5B0627E0281B401EC1B20A202D
:1055A000FFF7FAFDBAFBF0F00A21B0FBF1F201FBC4
:1055B000120027B9691E8C4201DA48B10127303048
:1055C000C2B206FB048080B25B46CDF8009006E0D4
:1055D00006FB048080B25B462022CDF80090029941
:1055E000FFF75EFF641CE4B2AC42D5D305B0BDE862
:1055F000F08F2DE9F84F044600F0FF0810190D4612
:10560000DDE90A761FFA80FA58191FFA80F94FF07F
:10561000000B11E0544502D3E819444685B24D45CC
:105620000FD23B4629462046CDF800B0FFF738FFA1
:1056300004EB570084B2761C3278A2F120005E2879
:10564000E8D9BDE8F88F000001B5BDF80000ADF85D
:105650000000BDF800000149088008BD0000086096
:1056600001B5BDF80000ADF80000BDF8000001492B
:10567000088008BDFEFF07600248034900890880D2
:1056800070470000D0A90220FEFF0760024A108088
:10569000901C018070470000FEFF0760104810B5A5
:1056A000016886B041F0020101600068012100F04C
:1056B000020005900320CDE90210CDE90001094C5C
:1056C00069462046FBF7F6F8012211462046FBF713
:1056D000E4F9012202212046FBF7DFF906B010BDF4
:1056E000303802400004024008B500900548018BA4
:1056F000C08A491E8BB2401E82B20021084600F0CB
:1057000045F808BDBCAA022000B58DB00823099257
:105710000490009306916846FBF7F8FB002800D040
:1057200001200DB000BD000010B5084B1C46587597
:10573000A1888AB2218889B220B1012801D1D982F9
:105740001A8310BDDA82198310BD0000BCAA0220A2
:10575000F0B50C4F94B23D46DFF82CC02B68EA69D7
:105760002D7D7E7D5CF8255026B103FB0100424370
:10577000AC52F0BD7E68301A401E03FB001050434F
:105780002C52F0BDBCAA0220540000202DE9F843A1
:10579000274EDDF820900024757D0DB1054606E00A
:1057A00077680D46B91A1A463B1A491E5B1E3068C7
:1057B00096F814C0DFF87C80521B871A58F82CC06A
:1057C000F66900FB015006FB00C51B487F1EBFB2F7
:1057D000066846F400060660006800F400000090C9
:1057E0001648066826F0010606604FF4403606604B
:1057F000022646630764C563591AF30303EB0242AA
:10580000491C11434164C0F83890016841F001011E
:1058100001605A0102E0641C944202D24168890787
:10582000F9D5816841F002018160BDE8F88300008C
:10583000BCAA0220540000203038024000B00240D0
:105840002DE9FF5F00F040F904460126784DA0F5F0
:1058500086404FF4F0714FF0280941F2180A42389F
:1058600047D03204A4F5E0434FF448704FF4C67BB0
:10587000843B50D003238C27A4F5E04C4FF4B47E36
:10588000BCF1160C54D0A4F5E0484FF4A06CB8F16C
:1058900018085DD0A4F58048B8F561785BD0544510
:1058A0000CD1C5E900C0AF810A2028822881E88197
:1058B00068826B8102217046FFF726FF5D482A68E7
:1058C0005E4F0280696841800220E8615A48386072
:1058D00057485B4BA8384FF00008C0E90038C0F8C3
:1058E0000880C0F80C80544545D14FF080530361C7
:1058F00043E04FF48870C5E900102E816E810820C6
:10590000A5F80C90E8810521298282036882042190
:105910004FF49070D0E7C5E900012E816E812E20F2
:10592000A8811720E881D2202882162068821FE0F3
:105930004FF4806028604FF416706860142028814E
:105940006B81AF81E881A02028820C206882B1E7BA
:10595000C5E900C0B2E7C5E900015820A881A5F853
:105960001090302028812020E8810D2068826B81F2
:1059700003215846A0E7C0F810802C89631E4361BC
:105980006B89A3F1010CC0F818C0B5F80CC06444D1
:10599000A4F1010CC0F81CC0B5F80EC06344A3F11B
:1059A000010CC0F820C0A2F1010CA444C0F824C02E
:1059B000A1F1010C9C44C0F828C0B5F810C06244A5
:1059C0002244521EC2626A8A11441944491E01636C
:1059D00080F8368080F8358080F834801448A83804
:1059E000FBF7C2F807200621CDE90208CDE90081C6
:1059F000FF2302220020396800F026F8A888002240
:105A000080B200902888114683B2104600F04AF810
:105A10000020FFF789FE0B4885F81480C0F89462D7
:105A200004B04FF0FF30BDE8F05FFFF75DBE00004F
:105A3000BCAA0220D0A90220000000C0540000200F
:105A400000680140008040422DE9F0438DB01646C9
:105A500014AA002492E88013114D009402942A683D
:105A600001926D68CDE904634FEA0823CDE906731E
:105A700003954FEA09230DF1240E08938EE82600C2
:105A800002468DF8324006488DF831408DF830C01E
:105A90006946A838FBF73FF80DB0BDE8F083000079
:105AA000BCAA022070B51E46044603460548049D64
:105AB000FBF752F923462A463146BDE870400148BB
:105AC000FBF774B914AA022030B52A4887B0002128
:105AD000026842F040020260026802F04002059251
